:020000040000FA
:100000000C9472000C949A000C949A000C949A0030
:100010000C949A000C949A000C949A000C949A00F8
:100020000C949A000C949A000C949A000C949A00E8
:100030000C949A000C949A000C949A000C949A00D8
:100040000C9436070C949A000C9404070C94DE066A
:100050000C949A000C949A000C949A000C949A00B8
:100060000C949A000C949A000000000025002800CF
:100070002B0000000000240027002A0000000000E0
:1000800023002600290004040404040404040202DA
:100090000202020203030303030301020408102007
:1000A0004080010204081020010204081020000012
:1000B0000008000201000003040700000000000027
:1000C0000000526561645F43617264002D2D2D2D27
:1000D000436172642044657465637465642D2D2DDD
:1000E0002D00800711241FBECFEFD8E0DEBFCDBFAB
:1000F00021E0A6E2B1E001C01D92A13EB207E1F706
:1001000011E0A0E0B1E0EEE3F8E102C005900D924D
:10011000A632B107D9F710E0C2E7D0E004C02197BA
:10012000FE010E94250AC137D107C9F70E94B7070F
:100130000C941D0C0C9400008CBD9DBD0895AF92D5
:10014000BF92CF92DF92EF92FF920F931F93CF93C4
:10015000DF936C017B018B01040F151FEB015E0126
:10016000AE18BF08C017D10759F06991D601ED91BB
:10017000FC910190F081E02DC6010995892B79F75A
:10018000C501DF91CF911F910F91FF90EF90DF900C
:10019000CF90BF90AF90089542E050E062E271E0EE
:1001A00080E391E00C949F00FC01538D448D252F3A
:1001B00030E0842F90E0821B930B541710F0CF9601
:1001C000089501970895FC01918D828D981761F033
:1001D000A28DAE0FBF2FB11D5D968C91928D9F5F4A
:1001E0009F73928F90E008958FEF9FEF0895FC0129
:1001F000918D828D981731F0828DE80FF11D858DDC
:1002000090E008958FEF9FEF0895FC01918D228D6E
:10021000892F90E0805C9F4F821B91098F739927F3
:10022000089580E391E00E94050121E0892B09F403
:1002300020E0822F089580E090E0892B29F00E9431
:10024000110181110C9400000895FC01A48DA80FE8
:10025000B92FB11DA35ABF4F2C91848D90E0019608
:100260008F739927848FA689B7892C93A089B18928
:100270008C91837080648C93938D848D981306C0C9
:100280000288F389E02D80818F7D80830895EF922D
:10029000FF920F931F93CF93DF93EC0181E0888F40
:1002A0009B8D8C8D98131AC0E889F989808185FF10
:1002B00015C09FB7F894EE89FF896083E889F989B2
:1002C00080818370806480839FBF81E090E0DF91B4
:1002D000CF911F910F91FF90EF900895F62E0B8D07
:1002E00010E00F5F1F4F0F731127E02E8C8D8E11C2
:1002F0000CC00FB607FCFACFE889F989808185FF29
:10030000F5CFCE010E942501F1CFEB8DEC0FFD2F33
:10031000F11DE35AFF4FF0829FB7F8940B8FEA89E3
:10032000FB8980818062CFCF0F931F93CF93DF93A0
:100330008C01D0E0C0E0F801EC0FFD1F6491662352
:1003400041F080E391E00E944701892B11F0219652
:10035000F2CFCE01DF91CF911F910F910895CF93EE
:10036000DF93EC01888D8823B9F0AA89BB89E889DD
:10037000F9898C9185FD03C0808186FD0DC00FB683
:1003800007FCF7CF8C9185FFF2CF808185FFEDCF01
:10039000CE010E942501E9CFDF91CF9108958330EE
:1003A00081F028F4813099F08230A9F008958730E7
:1003B000A9F08830C9F08430B1F4809180008F7D3D
:1003C00003C0809180008F7780938000089584B56A
:1003D0008F7784BD089584B58F7DFBCF8091B00069
:1003E0008F778093B00008958091B0008F7DF9CF12
:1003F0001F93CF93DF93282F30E0F901E255FF4F91
:100400008491F901E656FF4FD491F901EA57FF4F65
:10041000C491CC23A9F0162F81110E94CF01EC2F9B
:10042000F0E0EE0FFF1FE859FF4FA591B4918FB791
:10043000F894EC91111108C0D095DE23DC938FBFA6
:10044000DF91CF911F910895DE2BF8CFCF93DF93EB
:1004500090E0FC01E656FF4F24918A579F4FFC0124
:1004600084918823D1F090E0880F991FFC01EE5809
:10047000FF4FA591B491FC01E859FF4FC591D4916C
:1004800061110EC09FB7F8948C91E22FE0958E23F6
:100490008C932881E223E8839FBFDF91CF91089559
:1004A0008FB7F894EC91E22BEC938FBFF6CF3FB768
:1004B000F89480912B0190912C01A0912D01B09185
:1004C0002E0126B5A89B05C02F3F19F00196A11D4E
:1004D000B11D3FBFBA2FA92F982F8827BC01CD018E
:1004E000620F711D811D911D42E0660F771F881FED
:1004F000991F4A95D1F708958F929F92AF92BF921C
:10050000CF92DF92EF92FF920E9457024B015C0163
:1005100082E3C82ED12CE12CF12C0E9457026819DD
:1005200079098A099B09683E734081059105A8F302
:1005300021E0C21AD108E108F10888EE880E83E0B4
:10054000981EA11CB11CC114D104E104F10429F7C7
:10055000FF90EF90DF90CF90BF90AF909F908F90E3
:100560000895BC016E5F7F4FDC01ED91FC9101901D
:10057000F081E02D40E0099591E0811190E0892F14
:10058000089508958EBD00000DB407FEFDCF8EB511
:100590000895DF92EF92FF920F931F93CF93DF9313
:1005A0007C01062FD42E152F80E590E00E949C0040
:1005B00060E0F70186850E94F80182E10E94C20294
:1005C000CD2DD12F0C0F1D2F111DC017D10721F0DC
:1005D00089910E94C202F9CF61E0F7018685DF911F
:1005E000CF911F910F91FF90EF90DF900C94F80145
:1005F0001F93CF93DF93EC01162F80E590E00E94CC
:100600009C0060E08E850E94F801812F80680E9426
:10061000C20280E00E94C202182F61E08E850E9413
:10062000F801812FDF91CF911F9108950F931F93B0
:10063000CF93DF93EC01062F142F80E590E00E940A
:100640009C0060E08E850E94F801802F0E94C2020B
:10065000812F0E94C20261E08E85DF91CF911F91B0
:100660000F910C94F801CF92DF92EF92FF920F93CB
:100670001F93CF93DF93EC016B01142F790140E0BE
:1006800062E00E94160344E06AE0CE010E94160375
:1006900040E864E1CE010E941603A601612FCE015D
:1006A0000E94C90243E062E0CE010E94160308E8FE
:1006B00013E16AE0CE010E94F80282FF1BC040E015
:1006C00062E0CE010E94160364E4CE010E94F802AB
:1006D000F701808362E4CE010E94F802F701818372
:1006E00080E0DF91CF911F910F91FF90EF90DF900D
:1006F000CF90089501501109E1F683E0F2CF3F92C7
:100700004F925F926F927F928F929F92AF92BF9221
:10071000CF92DF92EF92FF920F931F93CF93DF93CD
:1007200000D0CDB7DEB74C012B01D42E390180E0CB
:10073000E114F10411F0F7018081BC2CB29490EF28
:10074000B922B80E40E062E0C4010E9416034FE7F0
:1007500068E0C4010E94160340E864E1C4010E94FD
:100760001603A2016D2DC4010E94C9024B2D6AE13E
:10077000C4010E9416034CE062E0C4010E9416030B
:100780006AE1C4010E94F802482F40686AE1C4018E
:100790000E94160320ED422E27E0522E68E0C4018D
:1007A0000E94F802982F907309F0B6C080FD04C033
:1007B000F1E04F1A510891F783E094C0611471047D
:1007C00009F46DC00115110509F469C064E1C401A3
:1007D0000E94F802B82EF80180818B1508F496C0AB
:1007E000B082BB20E1F180E590E00E949C0060E0D7
:1007F000F40186850E94F801BA9482E90E94C2023F
:10080000CC20B1F08FEF90E09C0102C0220F331F8B
:10081000CA94E2F7690182E90E94C2029C2D909578
:10082000F301208192238C21982B9083CC24C394B4
:1008300023014C0C511CCB1440F482E90E94C202EB
:10084000F20181932F01C394F6CF80E00E94C2028F
:10085000F201808361E0F40186850E94F80168E17D
:10086000C4010E94F8028770E114F10411F0F7014D
:10087000808333FC4DC06114710409F44BC0011531
:10088000110509F447C0AA2009F444C0F8014081C9
:10089000413039F4843009F049C08FEF23C080E043
:1008A000E8CF423008F442C0811140C042509E015E
:1008B0002F5F3F4FB301C4010E943303811112C067
:1008C000F8019081690E711CF301329720819981A2
:1008D00029132CC0F1E06F1A7108F30120819A816D
:1008E000291324C00F900F90DF91CF911F910F918A
:1008F000FF90EF90DF90CF90BF90AF909F908F9040
:100900007F906F905F904F903F90089584E0EACF82
:1009100082E0E8CF80E0E6CF6CE0C4010E94F802FC
:10092000382E837109F44ACF81E0DCCF87E0DACF3B
:100930000F931F93CF93DF938C01D62FC42F0E9468
:10094000F802C0954C2F48236D2FC801DF91CF913D
:100950001F910F910C9416038F929F92AF92CF929A
:10096000EF92FF920F931F93CF93DF9300D000D0AD
:100970001F92CDB7DEB74C0182E08D8340E064E288
:10098000C4010E94160340E066E2C4010E941603FF
:1009900046E268E4C4010E94160386E28B838D81DF
:1009A0008230B0F140E86CE1C4010E94980487E015
:1009B0008C83A12CC12CCE0104967C018E010B5F8F
:1009C0001F4F9E012F5F3F4F41E0BE016D5F7F4F84
:1009D000C4010E947F03982F811117C08D8182303E
:1009E000B9F48C81811114C081E00F900F900F90A9
:1009F0000F900F90DF91CF911F910F91FF90EF908B
:100A0000CF90AF909F908F90089581E0923069F3DE
:100A100080E0EBCF2F923F924F925F926F927F9246
:100A20008F929F92AF92BF92CF92DF92EF92FF92FE
:100A30000F931F93CF93DF93CDB7DEB72D970FB6EC
:100A4000F894DEBF0FBECDBF16E0413508F045C1BA
:100A5000342E4B013C0140E86CE10E94980483E98C
:100A60008983332029F081E0F4019081953008F4E6
:100A700080E022242394B12C9B2D990F990F990F7C
:100A8000D32CD91AD7FCD12C32E0882319F098E85E
:100A90009B8333E021E09D2D977009F420E09D2D8C
:100AA000959595959595290FC9F094E0811193E05E
:100AB000291708F4922FEB2DF0E03196E80DF91D7F
:100AC000232F4191A1E0B0E0AC0FBD1FA20FB11DDB
:100AD0004C932F5F422F431B491798F3882311F043
:100AE000F8E0DF0E8FE18D150CF082C090E79A835D
:100AF0008B819C8189279D8189279E8189278F836E
:100B00009E01285F3F4F47E0BE016F5F7F4FC301EB
:100B10000E943303182F8111E0C01A86E3E0EB87AF
:100B2000DC86CE0107962C0199E09D87CA844C2D66
:100B30004295407F4C0D6AE1C3010E941603A12C2F
:100B4000CE010A967C018E01055F1F4F92014D85F3
:100B5000BE016F5F7F4FC3010E947F03182F823059
:100B600009F065C06CE1C3010E94F80285FDB5C0C3
:100B70008F7109F480E2282F30E04D2DDD0C550BEC
:100B8000421753070CF09DC0D82EE82FE595E59548
:100B9000E595EF5F982F977081E009F480E0E80F0A
:100BA00081E090E08C0F9D1F8E0F911DFC01215064
:100BB00031092770332781E090E002C0880F991F28
:100BC0002A95E2F79C018081822B80838BCF85E977
:100BD0008983332031F081E0F4019081983008F06E
:100BE0004BCF80E049CF87E9898326E0B22EF9CF49
:100BF0009D2D97709A878D2D8595859585958E5F0E
:100C0000282F2295207F290F2A8321E0911101C0EE
:100C100020E0280F2D8744244394512C4C0E5D1E58
:100C2000480E511CE9E0E81BEB87DC867FCF811181
:100C300054C080E2D82E9C8590320CF457CF8B8123
:100C4000883809F040C083E093E0EB2DF0E0319666
:100C5000E80DF91D980FA1E0B0E0AC0FBD1FA80F83
:100C6000B11D2C9121938F5F8913F5CFBB84E3E0F5
:100C7000BE124DC08A8581114AC09E012D5F3F4F33
:100C800041E0B201C3010E943303182F811125C036
:100C90009B81F201818198133CC09C8182819813D1
:100CA00038C0808182FF12C02394F2E02F1609F42D
:100CB0008ECF83E0281609F496CF91E0291609F427
:100CC000CECE15E00AC082E094E0BFCFF401838766
:100CD000822D880F820D8F5F8083812F2D960FB616
:100CE000F894DEBF0FBECDBFDF91CF911F910F9162
:100CF000FF90EF90DF90CF90BF90AF909F908F903C
:100D00007F906F905F904F903F902F90089511E0EB
:100D1000E4CF17E0E2CF0F931F93CF93DF93EC0163
:100D200088819981009759F02A813B8126173707DE
:100D300030F081E0DF91CF911F910F9108958B01E9
:100D40006F5F7F4F0E94500B009759F09983888303
:100D50001B830A832C813D81232B59F7FC011082D0
:100D6000E8CF80E0E7CFEF92FF920F931F93CF93EE
:100D7000DF93EC017B018A01BA010E948B06288176
:100D80003981811114C02115310519F0C9010E9462
:100D9000C70A198218821D821C821B821A82CE0108
:100DA000DF91CF911F910F91FF90EF9008951D83D8
:100DB0000C83B701C9010E94160CF1CF1F920F924C
:100DC0000FB60F9211242F933F934F935F936F931E
:100DD0007F938F939F93AF93BF93EF93FF9380E3A2
:100DE00091E00E942501FF91EF91BF91AF919F91FA
:100DF0008F917F916F915F914F913F912F910F90C4
:100E00000FBE0F901F9018951F920F920FB60F9262
:100E100011242F938F939F93EF93FF93E0914001C1
:100E2000F09141018081E0914601F091470182FDFE
:100E30001BC09081809149018F5F8F7320914A017F
:100E4000821741F0E0914901F0E0E05DFE4F958F9F
:100E500080934901FF91EF919F918F912F910F9076
:100E60000FBE0F901F9018958081F4CF1F920F92A4
:100E70000FB60F9211242F933F938F939F93AF93AD
:100E8000BF938091270190912801A0912901B091F1
:100E90002A013091260123E0230F2D3758F50196C2
:100EA000A11DB11D20932601809327019093280155
:100EB000A0932901B0932A0180912B0190912C01DC
:100EC000A0912D01B0912E010196A11DB11D80931D
:100ED0002B0190932C01A0932D01B0932E01BF9173
:100EE000AF919F918F913F912F910F900FBE0F90D7
:100EF0001F90189526E8230F0296A11DB11DD2CF91
:100F0000E0E3F1E01382128288EE93E0A0E0B0E02B
:100F100084839583A683B7838AE091E0918380835D
:100F200085EC90E09587848784EC90E097878687AE
:100F300080EC90E0918B808B81EC90E0938B828BA6
:100F400082EC90E0958B848B86EC90E0978B868B7F
:100F5000118E128E138E148EEDECF1E08CE191E087
:100F6000918380838AE0868789E087870895CF937D
:100F7000DF93CDB7DEB765970FB6F894DEBF0FBE2F
:100F8000CDBF789484B5826084BD84B5816084BD12
:100F900085B5826085BD85B5816085BD80916E0017
:100FA000816080936E001092810080918100826048
:100FB0008093810080918100816080938100809185
:100FC00080008160809380008091B1008460809374
:100FD000B1008091B00081608093B00080917A0070
:100FE000846080937A0080917A00826080937A0096
:100FF00080917A00816080937A0080917A00806885
:1010000080937A001092C100E0914001F09141017B
:1010100082E08083E0913C01F0913D011082E091FB
:101020003E01F0913F0180E1808310924801E09100
:101030004401F091450186E08083E0914201F09106
:101040004301808180618083E0914201F0914301FE
:10105000808188608083E0914201F091430180812A
:1010600080688083E0914201F091430180818F7D0F
:1010700080831FB7F89480912F01811127C0E0E988
:10108000F0E08491E4EAF0E09491E82FF0E0EE0FD4
:10109000FF1FEE58FF4FA591B491EC91E92321F485
:1010A00061E08AE00E94F80161E08AE00E94260285
:1010B0008CB580618CBD8CB580648CBD61E08DE0A9
:1010C0000E94260261E08BE00E94260280912F019F
:1010D0008F5F80932F011FBF61E08091DB010E9431
:1010E000260261E08091DB010E94F8018091DC0121
:1010F0008F3F09F4F9C060E00E9426022091DC01D4
:1011000030E0F901E255FF4F8491F901E656FF4FB7
:101110000491F901EA57FF4F14911111D6C061E013
:101120008091DC010E94260260E08091DC010E9437
:10113000F80183E090E00197F1F761E08091DC0134
:101140000E94F8010E947C0240E064E28DEC91E094
:101150000E94160340E066E28DEC91E00E941603C7
:1011600046E268E48DEC91E00E94160340E864E5F5
:101170008DEC91E00E94160349EA66E58DEC91E062
:101180000E94160343E068E58DEC91E00E9416038F
:1011900048EE6AE58DEC91E00E94160340E46AE2B5
:1011A0008DEC91E00E9416034DE362E28DEC91E03C
:1011B0000E94160368E28DEC91E00E94F802982FDD
:1011C0009370933039F0482F436068E28DEC91E0E2
:1011D0000E94160382EC90E00E9494010E94CC00D1
:1011E000CE0101964C0180E0682E80E0782E90E5DB
:1011F000D92E8DEC91E00E94AC04882309F4B8C08C
:101200008DEC91E00E94B102882309F4B1C0198AE3
:10121000188A1B8A1A8A1D8A1C8A50E040E064E200
:1012200071E0CE0140960E94B3068CEC90E00E94E3
:101230009401C12C8091CF01C81608F068C0EC2D34
:10124000F0E0E353FE4F83811B861A861D861C86C1
:101250001F861E8640E1B40190E00E94C409F4019B
:1012600001900020E9F73197AF0148195909B401FD
:10127000CE010A960E94B3060A851B850115110549
:1012800011F1EE84FF84C801E114F104D1F08C89DE
:101290009D89E80EF91EB701CE0140960E948B068B
:1012A000882359F0288939898C899D89B801820F52
:1012B000931F0E94160CFD8AEC8A8A859B850097F5
:1012C00011F00E94C70AC394B5CF81110E94CF01CB
:1012D000E12FF0E0EE0FFF1FE458FF4FA591B4910E
:1012E000EC910E2309F41BCF4FE062E08DEC91E00E
:1012F0000E94160313E00E947C0262E08DEC91E0F4
:101300000E94F80284FF20CF1150A9F71DCF4C890D
:101310005D896889798980E391E00E949F000E943D
:10132000CC00D9821A829E012D5F3F4F42E0B4016A
:101330008DEC91E00E94330381110EC0A12CC12CD1
:10134000F12CE12C10E000E030E020E044E0B401BA
:101350008DEC91E00E947F0348E060E18DEC91E02C
:101360000E94980488899989009711F00E94C70A01
:101370006114710409F43DCF0E941101882309F41E
:1013800038CF0E94000035CFBB27FB015527AA2785
:10139000880F991FAA1FA41710F0A41B8395505102
:1013A000B9F7A05DAA3308F0A95DA193009779F77A
:1013B000B111B1931192CB010C94DE09DC01FC0157
:1013C000672F71917723E1F7329704C07C916D9379
:1013D00070836291AE17BF07C8F308952F923F92B2
:1013E0004F925F926F927F928F929F92AF92BF9235
:1013F000CF92DF92EF92FF920F931F93CF93DF93E1
:10140000CDB7DEB7CA1BDB0B0FB6F894DEBF0FBE3D
:10141000CDBF09942A88398848885F846E847D848A
:101420008C849B84AA84B984C884DF80EE80FD808C
:101430000C811B81AA81B981CE0FD11D0FB6F89402
:10144000DEBF0FBECDBFED010895EE0FFF1F05906B
:10145000F491E02D09940F931F93CF93DF93823083
:10146000910510F482E090E0E091DF01F091E0015D
:1014700030E020E0B0E0A0E0309799F4211531058C
:1014800009F44AC0281B390B24303105D8F58A816C
:101490009B816115710589F1FB0193838283FE01B4
:1014A00011C0408151810281138148175907E0F032
:1014B0004817590799F4109761F012960C931297F8
:1014C00013961C933296CF01DF91CF911F910F910C
:1014D00008950093DF011093E001F4CF2115310549
:1014E00051F04217530738F0A901DB019A01BD0101
:1014F000DF01F801C1CFEF01F9CF9093E0018093B4
:10150000DF01CDCFFE01E20FF31F819391932250B3
:10151000310939832883D7CF2091DD013091DE0155
:10152000232B41F420910201309103013093DE011D
:101530002093DD0120910001309101012115310539
:1015400041F42DB73EB74091040150910501241B91
:10155000350BE091DD01F091DE01E217F307A0F415
:101560002E1B3F0B2817390778F0AC014E5F5F4FF9
:101570002417350748F04E0F5F1F5093DE0140934C
:10158000DD01819391939FCFF0E0E0E09CCFCF937A
:10159000DF930097E9F0FC01329713821282A09149
:1015A000DF01B091E001ED0130E020E01097A1F4FF
:1015B00020813181820F931F2091DD013091DE0166
:1015C0002817390709F061C0F093DE01E093DD01CF
:1015D000DF91CF910895EA01CE17DF07E8F54A8140
:1015E0005B819E0141155105B1F7E901FB83EA8357
:1015F00049915991C40FD51FEC17FD0761F4808103
:1016000091810296840F951FE901998388838281D5
:1016100093819B838A83F0E0E0E012968D919C9108
:1016200013970097B9F52D913C911197CD01029632
:10163000820F931F2091DD013091DE0128173907B9
:1016400039F6309751F51092E0011092DF01B09316
:10165000DE01A093DD01BCCFD383C28340815181E1
:10166000840F951FC817D90761F44E5F5F4F8881BB
:101670009981480F591F518340838A819B819383AD
:1016800082832115310509F0B0CFF093E001E0939A
:10169000DF019ECFFD01DC01C0CF13821282D7CFC4
:1016A000B0E0A0E0E6E5FBE00C94F0098C010097C7
:1016B00051F4CB010E942B0A8C01C801CDB7DEB7D3
:1016C000E0E10C940C0AFC01E60FF71F9C0122508C
:1016D0003109E217F30708F49DC0D901CD91DC91DF
:1016E0001197C617D70798F0C530D10530F3CE0152
:1016F00004978617970708F3C61BD70B2297C19349
:10170000D1936D937C93CF010E94C70AD6CF5B0122
:10171000AC1ABD0A4C018C0E9D1EA091DF01B09148
:10172000E001512C412CF12CE12C109731F58091E6
:10173000DD019091DE018815990509F05CC046161F
:10174000570608F058C08091000190910101009760
:1017500041F48DB79EB74091040150910501841B5F
:10176000950BE817F90708F055C0F093DE01E093F8
:10177000DD01F90171836083A0CF8D919C91119758
:1017800012966C90129713967C901397A815B90532
:1017900059F56C0142E0C40ED11CCA14DB0420F1DF
:1017A000AC014A195B09DA011296159780F0628242
:1017B000738251834083D9016D937C93E114F104CA
:1017C00071F0D7011396FC93EE93129776CF229681
:1017D0008C0F9D1FF90191838083F301EFCFF0936C
:1017E000E001E093DF0169CF4816590608F42C01A7
:1017F0007D01D3019ACFCB010E942B0A7C01009777
:1018000049F0AE01B8010E940D0CC8010E94C70A40
:10181000870153CF10E000E050CFFB01DC0102C094
:1018200001900D9241505040D8F70895FB01DC0122
:1018300001900D920020E1F70895F894FFCF000089
:10184000E10180000000000047019F00D400AF01CB
:101850000501E300F700000000000A05AC04B10236
:041860000D0A00006D
:107E0000112484B714BE81FFF0D085E080938100F7
:107E100082E08093C00088E18093C10086E0809377
:107E2000C20080E18093C4008EE0C9D0259A86E02C
:107E300020E33CEF91E0309385002093840096BBD3
:107E4000B09BFECF1D9AA8958150A9F7CC24DD24C4
:107E500088248394B5E0AB2EA1E19A2EF3E0BF2EE7
:107E6000A2D0813461F49FD0082FAFD0023811F036
:107E7000013811F484E001C083E08DD089C08234E0
:107E800011F484E103C0853419F485E0A6D080C0E4
:107E9000853579F488D0E82EFF2485D0082F10E0AE
:107EA000102F00270E291F29000F111F8ED06801E7
:107EB0006FC0863521F484E090D080E0DECF843638
:107EC00009F040C070D06FD0082F6DD080E0C81688
:107ED00080E7D80618F4F601B7BEE895C0E0D1E017
:107EE00062D089930C17E1F7F0E0CF16F0E7DF06D8
:107EF00018F0F601B7BEE89568D007B600FCFDCFD4
:107F0000A601A0E0B1E02C9130E011968C91119780
:107F100090E0982F8827822B932B1296FA010C0160
:107F200087BEE89511244E5F5F4FF1E0A038BF0790
:107F300051F7F601A7BEE89507B600FCFDCF97BE46
:107F4000E89526C08437B1F42ED02DD0F82E2BD052
:107F50003CD0F601EF2C8F010F5F1F4F84911BD097
:107F6000EA94F801C1F70894C11CD11CFA94CF0C13
:107F7000D11C0EC0853739F428D08EE10CD085E9AC
:107F80000AD08FE07ACF813511F488E018D01DD067
:107F900080E101D065CF982F8091C00085FFFCCF94
:107FA0009093C60008958091C00087FFFCCF809118
:107FB000C00084FD01C0A8958091C6000895E0E648
:107FC000F0E098E1908380830895EDDF803219F02E
:107FD00088E0F5DFFFCF84E1DECF1F93182FE3DFCA
:107FE0001150E9F7F2DF1F91089580E0E8DFEE27F6
:047FF000FF270994CA
:027FFE00040479
:00000001FF
