:020000040000FA
:100000000C9453000C945B020C9434020C947B000F
:100010000C947B000C947B000C947B000C947B0074
:100020000C947B000C947B000C947B000C947B0064
:100030000C947B000C947B000C947B000C947B0054
:100040000C9492010C947B000C9402020C94DC0141
:100050000C947B000C947B000C947B000C947B0034
:100060000C947B000C947B0000000000250028000D
:100070002B0000000000240027002A0004040404D0
:100080000404040402020202020203030303030342
:10009000010204081020408001020408102001021F
:1000A00004081020740311241FBECFEFD8E0DEBF78
:1000B000CDBF11E0A0E0B1E0E0E6F9E002C00590BC
:1000C0000D92AE31B107D9F721E0AEE1B1E001C048
:1000D0001D92A63CB207E1F710E0C3E5D0E004C0F2
:1000E0002197FE010E94A804C235D107C9F70E94DA
:1000F00082020C94AE040C940000FC01538D448DDC
:10010000252F30E0842F90E0821B930B541710F0C2
:10011000CF96089501970895FC01918D828D9817CF
:1001200061F0A28DAE0FBF2FB11D5D968C91928DA7
:100130009F5F9F73928F90E008958FEF9FEF0895D8
:10014000FC01918D828D981731F0828DE80FF11DA1
:10015000858D90E008958FEF9FEF0895FC01918DBC
:10016000228D892F90E0805C9F4F821B91098F73B5
:1001700099270895FC01A48DA80FB92FB11DA35A8A
:10018000BF4F2C91848D90E001968F739927848FB7
:10019000A689B7892C93A089B1898C9183708064DA
:1001A0008C93938D848D981306C00288F389E02D7B
:1001B00080818F7D80830895EF92FF920F931F932C
:1001C000CF93DF93EC0181E0888F9B8D8C8D98130A
:1001D0001AC0E889F989808185FF15C09FB7F89416
:1001E000EE89FF896083E889F98980818370806462
:1001F00080839FBF81E090E0DF91CF911F910F91AD
:10020000FF90EF900895F62E0B8D10E00F5F1F4FBB
:100210000F731127E02E8C8D8E110CC00FB607FCCA
:10022000FACFE889F989808185FFF5CFCE010E9458
:10023000BA00F1CFEB8DEC0FFD2FF11DE35AFF4F0C
:10024000F0829FB7F8940B8FEA89FB8980818062E6
:10025000CFCFCF93DF93EC01888D8823B9F0AA89A3
:10026000BB89E889F9898C9185FD03C0808186FD71
:100270000DC00FB607FCF7CF8C9185FFF2CF8081C0
:1002800085FFEDCFCE010E94BA00E9CFDF91CF917B
:1002900008958EE191E00E94AE0021E0892B09F4DF
:1002A00020E0822F089580E090E0892B29F00E94C1
:1002B000490181110C9400000895AF92BF92CF9232
:1002C000DF92EF92FF920F931F93CF93DF936C0116
:1002D0007B018B01040F151FEB015E01AE18BF08F7
:1002E000C017D10759F06991D601ED91FC910190A9
:1002F000F081E02DC6010995892B79F7C501DF91C1
:10030000CF911F910F91FF90EF90DF90CF90BF9012
:10031000AF90089508950E94ED037093BC0160931F
:10032000BB0108951F920F920FB60F9211242F93C5
:100330003F938F939F93AF93BF938091C20190910E
:10034000C301A091C401B091C5013091C10123E066
:10035000230F2D3758F50196A11DB11D2093C10122
:100360008093C2019093C301A093C401B093C501CF
:100370008091BD019091BE01A091BF01B091C001DB
:100380000196A11DB11D8093BD019093BE01A09364
:10039000BF01B093C001BF91AF919F918F913F91E9
:1003A0002F910F900FBE0F901F90189526E8230FE6
:1003B0000296A11DB11DD2CF1F920F920FB60F92C0
:1003C00011242F933F934F935F936F937F938F935A
:1003D0009F93AF93BF93EF93FF938EE191E00E94C1
:1003E000BA00FF91EF91BF91AF919F918F917F9153
:1003F0006F915F914F913F912F910F900FBE0F9092
:100400001F9018951F920F920FB60F9211242F93E1
:100410008F939F93EF93FF93E0912E01F0912F0123
:100420008081E0913401F091350182FD1BC0908103
:10043000809137018F5F8F7320913801821741F0CF
:10044000E0913701F0E0E25EFE4F958F8093370137
:10045000FF91EF919F918F912F910F900FBE0F9071
:100460001F9018958081F4CF1F920F920FB60F92B4
:1004700011242F933F934F935F936F937F938F93A9
:100480009F93AF93BF93EF93FF93E0910201F0919D
:1004900003010995FF91EF91BF91AF919F918F91CA
:1004A0007F916F915F914F913F912F910F900FBE70
:1004B0000F901F9018951F920F920FB60F92112454
:1004C0002F933F934F935F936F937F938F939F935C
:1004D000AF93BF93EF93FF93E0910001F09101017F
:1004E0000995FF91EF91BF91AF919F918F917F916E
:1004F0006F915F914F913F912F910F900FBE0F9091
:100500001F901895CF93DF93CDB7DEB7A1970FB6A5
:10051000F894DEBF0FBECDBF789484B5826084BDF1
:1005200084B5816084BD85B5826085BD85B58160F7
:1005300085BD80916E00816080936E001092810075
:100540008091810082608093810080918100816030
:1005500080938100809180008160809380008091F1
:10056000B10084608093B1008091B000816080937D
:10057000B00080917A00846080937A0080917A0044
:10058000826080937A0080917A00816080937A0003
:1005900080917A00806880937A001092C100EDE922
:1005A000F0E02491E9E8F0E08491882399F090E06C
:1005B000880F991FFC01EE58FF4FA591B491FC01E3
:1005C000E859FF4F859194918FB7F894EC91E22B05
:1005D000EC938FBFE8E9F0E02491E4E8F0E0849147
:1005E0008823C9F090E0880F991FFC01EE58FF4F57
:1005F00045915491FC01E859FF4FA591B4919FB7E3
:10060000F894FA013081822F809583238083EC91C6
:10061000E22BEC939FBF8AE0882E912CA12CB12C69
:1006200000E010E0C090BB01D090BC010D2C000C8C
:10063000EE08FF08F7FE42C06DE28EE191E00E94F5
:10064000DC0022273327A9012C193D094E095F0937
:1006500019A2CE0181967C01CA01B901A5019401BC
:100660000E947704605DF70162937F0121153105D7
:100670004105510589F7E114F10461F00190002072
:10068000E9F73197AF014E195F09B7018EE191E0AB
:100690000E945D0142E050E06AE171E08EE191E08C
:1006A0000E945D010115110509F4BCCF0E944901AA
:1006B000882309F4B7CF0E940000B4CFA7019601A8
:1006C00019A2CE0181967C01CA01B901A50194014C
:1006D0000E947704605DF70162937F012115310567
:1006E0004105510589F7C7CFEEE1F1E0138212828F
:1006F00088EE93E0A0E0B0E084839583A683B7837F
:100700008CE091E09183808385EC90E095878487ED
:1007100084EC90E09787868780EC90E0918B808BCB
:1007200081EC90E0938B828B82EC90E0958B848BB4
:1007300086EC90E0978B868B118E128E138E148E22
:1007400008958F929F92AF92BF92CF92DF92EF92D5
:10075000FF92CF93DF93EC01688179818A819B813D
:10076000611571058105910521F464E279ED8BE550
:1007700097E02DE133EF41E050E00E94450449014C
:100780005A019B01AC01A7EAB1E40E9464046B0129
:100790007C01ACEEB4EFA50194010E947204C60E78
:1007A000D71EE81EF91EF7FE06C081E0C81AD10860
:1007B000E10880E8F80AC882D982EA82FB82C70190
:1007C000B6019F77DF91CF91FF90EF90DF90CF90B0
:1007D000BF90AF909F908F9008958F929F92AF920D
:1007E000BF92CF92DF92EF92FF92609104017091DD
:1007F0000501809106019091070161157105810540
:10080000910521F464E279ED8BE597E02DE133EF7A
:1008100041E050E00E94450449015A019B01AC01AE
:10082000A7EAB1E40E9464046B017C01ACEEB4EF72
:10083000A50194010E947204C60ED71EE81EF91E7F
:10084000F7FE06C081E0C81AD108E10880E8F80A7E
:10085000C0920401D0920501E0920601F0920701D6
:10086000C701B6019F77FF90EF90DF90CF90BF90C8
:10087000AF909F908F90089560930401709305014D
:1008800080930601909307010895052E97FB1EF4AF
:1008900000940E945C0457FD07D00E94770407FC77
:1008A00003D04EF40C945C045095409530952195FE
:1008B0003F4F4F4F5F4F089590958095709561958C
:1008C0007F4F8F4F9F4F08950E949904A59F900DD1
:1008D000B49F900DA49F800D911D11240895B7FF22
:1008E0000C9464040E946404821B930B0895A1E29B
:1008F0001A2EAA1BBB1BFD010DC0AA1FBB1FEE1F9A
:10090000FF1FA217B307E407F50720F0A21BB30BE4
:10091000E40BF50B661F771F881F991F1A9469F760
:1009200060957095809590959B01AC01BD01CF01BC
:100930000895A29FB001B39FC001A39F700D811DB8
:100940001124911DB29F700D811D1124911D0895D8
:10095000EE0FFF1F0590F491E02D0994F894FFCF5E
:100960008A018A010100000000000000DC005D0136
:0E0970007D002901AE008C00A0000D0A0000E1
:107E0000112484B714BE81FFF0D085E080938100F7
:107E100082E08093C00088E18093C10086E0809377
:107E2000C20080E18093C4008EE0C9D0259A86E02C
:107E300020E33CEF91E0309385002093840096BBD3
:107E4000B09BFECF1D9AA8958150A9F7CC24DD24C4
:107E500088248394B5E0AB2EA1E19A2EF3E0BF2EE7
:107E6000A2D0813461F49FD0082FAFD0023811F036
:107E7000013811F484E001C083E08DD089C08234E0
:107E800011F484E103C0853419F485E0A6D080C0E4
:107E9000853579F488D0E82EFF2485D0082F10E0AE
:107EA000102F00270E291F29000F111F8ED06801E7
:107EB0006FC0863521F484E090D080E0DECF843638
:107EC00009F040C070D06FD0082F6DD080E0C81688
:107ED00080E7D80618F4F601B7BEE895C0E0D1E017
:107EE00062D089930C17E1F7F0E0CF16F0E7DF06D8
:107EF00018F0F601B7BEE89568D007B600FCFDCFD4
:107F0000A601A0E0B1E02C9130E011968C91119780
:107F100090E0982F8827822B932B1296FA010C0160
:107F200087BEE89511244E5F5F4FF1E0A038BF0790
:107F300051F7F601A7BEE89507B600FCFDCF97BE46
:107F4000E89526C08437B1F42ED02DD0F82E2BD052
:107F50003CD0F601EF2C8F010F5F1F4F84911BD097
:107F6000EA94F801C1F70894C11CD11CFA94CF0C13
:107F7000D11C0EC0853739F428D08EE10CD085E9AC
:107F80000AD08FE07ACF813511F488E018D01DD067
:107F900080E101D065CF982F8091C00085FFFCCF94
:107FA0009093C60008958091C00087FFFCCF809118
:107FB000C00084FD01C0A8958091C6000895E0E648
:107FC000F0E098E1908380830895EDDF803219F02E
:107FD00088E0F5DFFFCF84E1DECF1F93182FE3DFCA
:107FE0001150E9F7F2DF1F91089580E0E8DFEE27F6
:047FF000FF270994CA
:027FFE00040479
:00000001FF
