:020000040000FA
:100000000C945D000C9485000C9485000C94850084
:100010000C9485000C9485000C9485000C9485004C
:100020000C9485000C9485000C9485000C9485003C
:100030000C9485000C9485000C9485000C9485002C
:100040000C940E030C9485000C94DC020C94B60204
:100050000C9485000C9485000C9485000C9485000C
:100060000C9485000C94850000000008000201003B
:100070000003040700000000000000000000000072
:10008000250028002B0000000000240027002A0083
:10009000040404040404040402020202020203032E
:1000A0000303030301020408102040800102040836
:1000B0001020010204081020000511241FBECFEFFC
:1000C000D8E0DEBFCDBF24E0A4EDB3E001C01D92B7
:1000D000AE37B207E1F713E0A0E0B1E0ECEBFEE0F1
:1000E00002C005900D92A43DB107D9F710E0CDE50F
:1000F000D0E004C02197FE010E946405CC35D107F1
:10010000C9F70E9458030C945C070C94000090E01F
:10011000FC01EC55FF4F249180579F4FFC018491C7
:10012000882399F090E0880F991FFC01EA57FF4F50
:10013000A591B491FC01E458FF4F859194918FB73C
:10014000F894EC91E22BEC938FBF0895AF92BF929D
:10015000CF92DF92EF92FF920F931F93CF93DF9393
:100160006C017B018B01040F151FEB015E01AE18C2
:10017000BF08C017D10759F06991D601ED91FC91E4
:100180000190F081E02DC6010995892B79F7C50111
:10019000DF91CF911F910F91FF90EF90DF90CF9063
:1001A000BF90AF900895FC01538D448D252F30E012
:1001B000842F90E0821B930B541710F0CF96089574
:1001C00001970895FC01918D828D981761F0A28DA1
:1001D000AE0FBF2FB11D5D968C91928D9F5F9F7367
:1001E000928F90E008958FEF9FEF0895FC01918D1D
:1001F000828D981731F0828DE80FF11D858D90E08A
:1002000008958FEF9FEF0895FC01918D228D892F26
:1002100090E0805C9F4F821B91098F73992708950E
:100220008DED93E00E94040121E0892B09F420E088
:10023000822F089580E090E0892B29F00E94100120
:1002400081110C9400000895FC01A48DA80FB92F12
:10025000B11DA35ABF4F2C91848D90E001968F73EE
:100260009927848FA689B7892C93A089B1898C910D
:10027000837080648C93938D848D981306C002885C
:10028000F389E02D80818F7D80830895EF92FF9226
:100290000F931F93CF93DF93EC0181E0888F9B8DA9
:1002A0008C8D98131AC0E889F989808185FF15C063
:1002B0009FB7F894EE89FF896083E889F989808186
:1002C0008370806480839FBF81E090E0DF91CF9155
:1002D0001F910F91FF90EF900895F62E0B8D10E077
:1002E0000F5F1F4F0F731127E02E8C8D8E110CC0E6
:1002F0000FB607FCFACFE889F989808185FFF5CF31
:10030000CE010E942401F1CFEB8DEC0FFD2FF11DEA
:10031000E35AFF4FF0829FB7F8940B8FEA89FB896D
:1003200080818062CFCFCF93DF93EC01888D8823CB
:10033000B9F0AA89BB89E889F9898C9185FD03C048
:10034000808186FD0DC00FB607FCF7CF8C9185FF2D
:10035000F2CF808185FFEDCFCE010E942401E9CF4D
:10036000DF91CF91089590E0FC01E859FF4F24916F
:10037000FC01EC55FF4F3491FC01E057FF4FE49135
:10038000EE23C9F0222339F0233001F1A8F4213003
:1003900019F1223029F1F0E0EE0FFF1FE458FF4F72
:1003A000A591B4918FB7F894EC91611126C0309566
:1003B0003E233C938FBF08952730A9F02830C9F021
:1003C000243049F7809180008F7D03C080918000A8
:1003D0008F7780938000DFCF84B58F7784BDDBCFAC
:1003E00084B58F7DFBCF8091B0008F778093B00074
:1003F000D2CF8091B0008F7DF9CF3E2BDACF3FB7BF
:10040000F8948091D9039091DA03A091DB03B09125
:10041000DC0326B5A89B05C02F3F19F00196A11D4E
:10042000B11D3FBFBA2FA92F982F8827BC01CD013E
:10043000620F711D811D911D42E0660F771F881F9D
:10044000991F4A95D1F708958F929F92AF92BF92CC
:10045000CF92DF92EF92FF924B015C010E94FF016D
:100460006B017C010E94FF016C197D098E099F09B7
:10047000683E734081059105A8F321E0821A910836
:10048000A108B10888EEC80E83E0D81EE11CF11C5B
:1004900081149104A104B10429F7FF90EF90DF903B
:1004A000CF90BF90AF909F908F90089542E050E022
:1004B0006EEA73E08DED93E00C94A600CF93DF938A
:1004C000FC0101900020E9F73197AF01481B590B5F
:1004D000BC018DED93E00E94A600EC010E94560243
:1004E0008C0F9D1FDF91CF910895CF93DF93D82F6D
:1004F000C8E06D2F661F6627661F85E00E94B30166
:10050000DD0F61E087E00E94B30160E087E00E94B8
:10051000B301C15071F7DF91CF9108950F931F93ED
:10052000CF93DF93EC0188819981009759F02A815C
:100530003B812617370730F081E0DF91CF911F9183
:100540000F9108958B016F5F7F4F0E948F06009778
:1005500059F0998388831B830A832C813D81232B47
:1005600059F7FC011082E8CF80E0E7CF1F920F928D
:100570000FB60F9211242F933F934F935F936F9376
:100580007F938F939F93AF93BF93EF93FF938DEDE3
:1005900093E00E942401FF91EF91BF91AF919F9151
:1005A0008F917F916F915F914F913F912F910F901C
:1005B0000FBE0F901F9018951F920F920FB60F92BB
:1005C00011242F938F939F93EF93FF93E091ED036B
:1005D000F091EE038081E091F303F091F40382FD4A
:1005E0001BC090818091F6038F5F8F732091F7037A
:1005F000821741F0E091F603F0E0E352FC4F958F53
:100600008093F603FF91EF919F918F912F910F901F
:100610000FBE0F901F9018958081F4CF1F920F92FC
:100620000FB60F9211242F933F938F939F93AF9305
:10063000BF938091D5039091D603A091D703B09139
:10064000D8033091D40323E0230F2D3758F50196BA
:10065000A11DB11D2093D4038093D5039093D6039D
:10066000A093D703B093D8038091D9039091DA0374
:10067000A091DB03B091DC030196A11DB11D809315
:10068000D9039093DA03A093DB03B093DC03BF910B
:10069000AF919F918F913F912F910F900FBE0F902F
:1006A0001F90189526E8230F0296A11DB11DD2CFE9
:1006B000CF93DF93CDB7DEB728970FB6F894DEBFA0
:1006C0000FBECDBF789484B5826084BD84B581604F
:1006D00084BD85B5826085BD85B5816085BD80910D
:1006E0006E00816080936E00109281008091810085
:1006F000826080938100809181008160809381007D
:10070000809180008160809380008091B10084603E
:100710008093B1008091B00081608093B00080919F
:100720007A00846080937A0080917A00826080935E
:100730007A0080917A00816080937A0080917A00BB
:10074000806880937A001092C100E091ED03F091EF
:10075000EE0382E08083E091E903F091EA031082E6
:10076000E091EB03F091EC038FEC80831092F503A2
:10077000E091F103F091F20386E08083E091EF03D2
:10078000F091F003808180618083E091EF03F0912C
:10079000F003808188608083E091EF03F091F003A3
:1007A000808180688083E091EF03F091F003808185
:1007B0008F7D808385E00E94870087E00E9487000C
:1007C00086E00E94870081EB93E00E945E0240E099
:1007D000242E40E0342E1A8219821C821B821E8233
:1007E0001D8270E060E0CE0101960E948E02298198
:1007F0003A81811138C02115310519F0C9010E94D3
:1008000006061A8219821E821D821C821B828DEDB1
:1008100093E00E940401181619066CF58DED93E023
:100820000E94E2008F8318860D811E810F5F1F4F8B
:10083000B801CE0101960E948E02882369F02981B9
:100840003A818D819E81BE01695F7F4F820F931F28
:100850000E9455071E830D8365E070E080E090E004
:100860000E942402D4CF1E821D8260EB73E0C90176
:100870000E945507CCCF4D815E8169817A818DEDD3
:1008800093E00E94A6000E9456028DED93E00E9424
:100890000401892B09F09EC010E000E08D819E814B
:1008A0000817190708F08FC038E8E32E33E0F32E5D
:1008B000712C612C2D813E810217130708F05EC058
:1008C00089819A81009709F459C0800F911FFC011A
:1008D0008081F70191917F01981352C024E0660C4A
:1008E000771C2A95E1F7C30180509F4F3C01F12C02
:1008F000E12C2C0190E1490E511C9EE1C92ED12C16
:10090000530188E7882E83E0982E60E086E00E94FD
:10091000B301F501819191915F010E2C01C0880F07
:100920000A94EAF780950E947502F4018081F2E052
:100930008F0E911C0E94750261E086E00E94B30157
:1009400061E070E080E090E00E942402A414B5040D
:10095000E1F681E0C81AD10899F69FEFE91AF90A81
:10096000E9E0EE16F10449F68DED93E00E940401F2
:100970001816190644F10F5F1F4F90CF80E0A9CFE2
:10098000F5E26F167104B1F402171307A8F5298177
:100990003A81863279F02115310581F1200F311F1E
:1009A000F90160818DED93E00E94460180EC93E0B7
:1009B0000E945E02FFEF6F1A7F0A86E268167104DA
:1009C00009F078CFD1CF6CE271E080E090E00E9436
:1009D00024025BCF89819A81009711F00E9406065C
:1009E0002114310409F4F7CE0E941001882309F480
:1009F000F2CE0E940000EFCE8632E1F260E0D2CF6C
:100A0000EDEDF3E01382128288EE93E0A0E0B0E017
:100A100084839583A683B7838AE693E0918380835A
:100A200085EC90E09587848784EC90E097878687B3
:100A300080EC90E0918B808B81EC90E0938B828BAB
:100A400082EC90E0958B848B86EC90E0978B868B84
:100A5000118E128E138E148E08952F923F924F9204
:100A60005F926F927F928F929F92AF92BF92CF923E
:100A7000DF92EF92FF920F931F93CF93DF93CDB747
:100A8000DEB7CA1BDB0B0FB6F894DEBF0FBECDBFBF
:100A900009942A88398848885F846E847D848C8490
:100AA0009B84AA84B984C884DF80EE80FD800C8199
:100AB0001B81AA81B981CE0FD11D0FB6F894DEBF7C
:100AC0000FBECDBFED010895EE0FFF1F0590F4910D
:100AD000E02D09940F931F93CF93DF9382309105FC
:100AE00010F482E090E0E0917C04F0917D0430E02D
:100AF00020E0B0E0A0E0309799F42115310509F429
:100B00004AC0281B390B24303105D8F58A819B81D6
:100B10006115710589F1FB0193838283FE0111C088
:100B2000408151810281138148175907E0F048172D
:100B3000590799F4109761F012960C931297139637
:100B40001C933296CF01DF91CF911F910F910895A1
:100B500000937C0410937D04F4CF2115310551F0EE
:100B60004217530738F0A901DB019A01BD01DF01EB
:100B7000F801C1CFEF01F9CF90937D0480937C04FD
:100B8000CDCFFE01E20FF31F8193919322503109E3
:100B900039832883D7CF20917A0430917B04232B8B
:100BA00041F4209162033091630330937B042093DE
:100BB0007A0420916003309161032115310541F4DD
:100BC0002DB73EB74091640350916503241B350B4C
:100BD000E0917A04F0917B04E217F307A0F42E1B56
:100BE0003F0B2817390778F0AC014E5F5F4F241791
:100BF000350748F04E0F5F1F50937B0440937A04F3
:100C0000819391939FCFF0E0E0E09CCFCF93DF936F
:100C10000097E9F0FC01329713821282A0917C04C4
:100C2000B0917D04ED0130E020E01097A1F4208127
:100C30003181820F931F20917A0430917B04281711
:100C4000390709F061C0F0937B04E0937A04DF91E7
:100C5000CF910895EA01CE17DF07E8F54A815B815D
:100C60009E0141155105B1F7E901FB83EA834991E2
:100C70005991C40FD51FEC17FD0761F48081918154
:100C80000296840F951FE90199838883828193815D
:100C90009B838A83F0E0E0E012968D919C911397FC
:100CA0000097B9F52D913C911197CD010296820FD5
:100CB000931F20917A0430917B042817390739F665
:100CC000309751F510927D0410927C04B0937B0410
:100CD000A0937A04BCCFD383C28340815181840F17
:100CE000951FC817D90761F44E5F5F4F88819981BE
:100CF000480F591F518340838A819B81938382834C
:100D00002115310509F0B0CFF0937D04E0937C0408
:100D10009ECFFD01DC01C0CF13821282D7CFB0E09D
:100D2000A0E0E5E9F6E00C942F058C01009751F462
:100D3000CB010E946A058C01C801CDB7DEB7E0E1A6
:100D40000C944B05FC01E60FF71F9C012250310962
:100D5000E217F30708F49DC0D901CD91DC911197FA
:100D6000C617D70798F0C530D10530F3CE010497E8
:100D70008617970708F3C61BD70B2297C193D19309
:100D80006D937C93CF010E940606D6CF5B01AC1A0F
:100D9000BD0A4C018C0E9D1EA0917C04B0917D0477
:100DA000512C412CF12CE12C109731F580917A04D3
:100DB00090917B048815990509F05CC0461657068A
:100DC00008F058C08091600390916103009741F44E
:100DD0008DB79EB74091640350916503841B950BBA
:100DE000E817F90708F055C0F0937B04E0937A0404
:100DF000F90171836083A0CF8D919C911197129618
:100E00006C90129713967C901397A815B90559F515
:100E10006C0142E0C40ED11CCA14DB0420F1AC0109
:100E20004A195B09DA011296159780F06282738283
:100E300051834083D9016D937C93E114F10471F0E7
:100E4000D7011396FC93EE93129776CF22968C0FD0
:100E50009D1FF90191838083F301EFCFF0937D040F
:100E6000E0937C0469CF4816590608F42C017D01F3
:100E7000D3019ACFCB010E946A057C01009749F00B
:100E8000AE01B8010E944C07C8010E940606870106
:100E900053CF10E000E050CFFB01DC0102C0019015
:100EA0000D9241505040D8F70895FB01DC010190AC
:100EB0000D920020E1F70895F894FFCF18003C0050
:100EC000660066007E0066006600660078006400CA
:100ED000680078006400660066007C003C006200E8
:100EE000600060006000620062003C007800640006
:100EF0006600660066006600640078007E006000A0
:100F000060007C006000600060007E007E00600089
:100F100060007C0060006000600060003C006200D7
:100F2000600060006600620062003C0066006600CF
:100F300066007E0066006600660066007E0018009F
:100F4000180018001800180018007E007E00180015
:100F500018001800180018001A000C006200640045
:100F6000680070007000680064006200600060004B
:100F7000600060006000600060007E00C300E70069
:100F8000DB00DB00C300C300C300C30062006200DB
:100F9000520052004A004A00460046003C006600EB
:100FA000660066006600660066003C007C00620029
:100FB00062007C0060006000600060003800640037
:100FC0006400640064006C0064003A007C0062000D
:100FD00062007C0070006800640062001C00220057
:100FE000300018000C00460046003C007E0018004F
:100FF0001800180018001800180018006600660095
:10100000660066006600660066003C0066006600DA
:1010100066006600660066003C00180081008100E2
:101020008100810081009900990066004200420021
:10103000240018001800240042004200C30066008B
:101040003C00180018001800180018007E0002006C
:10105000040008001000200040007E003C006600F4
:1010600066006E007600660066003C0018003800DE
:10107000580018001800180018007E003C00660098
:1010800066000C00180030007E007E007E000C0020
:1010900018003C000600060046003C000C0018004A
:1010A00030006C006C007E000C000C007E006000C4
:1010B00060007C000600060046003C0004000800BA
:1010C000100038006C00660066003C007E004600A0
:1010D0000C00180018001800180018003C006600EA
:1010E00066003C006600660066003C003C0066004E
:1010F000660036001C000800100020000000000000
:101100000000000000000000000000000000660079
:10111000FF00FF007E003C001800000000007E047D
:101120008000000000004601A600D30093010401E6
:10113000E200F60001000200040008001000200098
:10114000400080004142434445464748494A4B4C91
:101150004D4E4F505152535455565758595A30319D
:10116000323334353637383920260D0A00454E548F
:101170004552204120535452494E47003A696E76F9
:10118000616C6964206368617261637465720000F8
:107E0000112484B714BE81FFF0D085E080938100F7
:107E100082E08093C00088E18093C10086E0809377
:107E2000C20080E18093C4008EE0C9D0259A86E02C
:107E300020E33CEF91E0309385002093840096BBD3
:107E4000B09BFECF1D9AA8958150A9F7CC24DD24C4
:107E500088248394B5E0AB2EA1E19A2EF3E0BF2EE7
:107E6000A2D0813461F49FD0082FAFD0023811F036
:107E7000013811F484E001C083E08DD089C08234E0
:107E800011F484E103C0853419F485E0A6D080C0E4
:107E9000853579F488D0E82EFF2485D0082F10E0AE
:107EA000102F00270E291F29000F111F8ED06801E7
:107EB0006FC0863521F484E090D080E0DECF843638
:107EC00009F040C070D06FD0082F6DD080E0C81688
:107ED00080E7D80618F4F601B7BEE895C0E0D1E017
:107EE00062D089930C17E1F7F0E0CF16F0E7DF06D8
:107EF00018F0F601B7BEE89568D007B600FCFDCFD4
:107F0000A601A0E0B1E02C9130E011968C91119780
:107F100090E0982F8827822B932B1296FA010C0160
:107F200087BEE89511244E5F5F4FF1E0A038BF0790
:107F300051F7F601A7BEE89507B600FCFDCF97BE46
:107F4000E89526C08437B1F42ED02DD0F82E2BD052
:107F50003CD0F601EF2C8F010F5F1F4F84911BD097
:107F6000EA94F801C1F70894C11CD11CFA94CF0C13
:107F7000D11C0EC0853739F428D08EE10CD085E9AC
:107F80000AD08FE07ACF813511F488E018D01DD067
:107F900080E101D065CF982F8091C00085FFFCCF94
:107FA0009093C60008958091C00087FFFCCF809118
:107FB000C00084FD01C0A8958091C6000895E0E648
:107FC000F0E098E1908380830895EDDF803219F02E
:107FD00088E0F5DFFFCF84E1DECF1F93182FE3DFCA
:107FE0001150E9F7F2DF1F91089580E0E8DFEE27F6
:047FF000FF270994CA
:027FFE00040479
:00000001FF
